{
  "_format": "hh-sol-artifact-1",
  "contractName": "MamasetMemory",
  "sourceName": "contracts/MamasetMemory.sol",
  "abi": [
    {
      "inputs": [],
      "stateMutability": "nonpayable",
      "type": "constructor"
    },
    {
      "inputs": [
        {
          "internalType": "address",
          "name": "sender",
          "type": "address"
        },
        {
          "internalType": "uint256",
          "name": "tokenId",
          "type": "uint256"
        },
        {
          "internalType": "address",
          "name": "owner",
          "type": "address"
        }
      ],
      "name": "ERC721IncorrectOwner",
      "type": "error"
    },
    {
      "inputs": [
        {
          "internalType": "address",
          "name": "operator",
          "type": "address"
        },
        {
          "internalType": "uint256",
          "name": "tokenId",
          "type": "uint256"
        }
      ],
      "name": "ERC721InsufficientApproval",
      "type": "error"
    },
    {
      "inputs": [
        {
          "internalType": "address",
          "name": "approver",
          "type": "address"
        }
      ],
      "name": "ERC721InvalidApprover",
      "type": "error"
    },
    {
      "inputs": [
        {
          "internalType": "address",
          "name": "operator",
          "type": "address"
        }
      ],
      "name": "ERC721InvalidOperator",
      "type": "error"
    },
    {
      "inputs": [
        {
          "internalType": "address",
          "name": "owner",
          "type": "address"
        }
      ],
      "name": "ERC721InvalidOwner",
      "type": "error"
    },
    {
      "inputs": [
        {
          "internalType": "address",
          "name": "receiver",
          "type": "address"
        }
      ],
      "name": "ERC721InvalidReceiver",
      "type": "error"
    },
    {
      "inputs": [
        {
          "internalType": "address",
          "name": "sender",
          "type": "address"
        }
      ],
      "name": "ERC721InvalidSender",
      "type": "error"
    },
    {
      "inputs": [
        {
          "internalType": "uint256",
          "name": "tokenId",
          "type": "uint256"
        }
      ],
      "name": "ERC721NonexistentToken",
      "type": "error"
    },
    {
      "inputs": [
        {
          "internalType": "address",
          "name": "owner",
          "type": "address"
        }
      ],
      "name": "OwnableInvalidOwner",
      "type": "error"
    },
    {
      "inputs": [
        {
          "internalType": "address",
          "name": "account",
          "type": "address"
        }
      ],
      "name": "OwnableUnauthorizedAccount",
      "type": "error"
    },
    {
      "anonymous": false,
      "inputs": [
        {
          "indexed": true,
          "internalType": "address",
          "name": "owner",
          "type": "address"
        },
        {
          "indexed": true,
          "internalType": "address",
          "name": "approved",
          "type": "address"
        },
        {
          "indexed": true,
          "internalType": "uint256",
          "name": "tokenId",
          "type": "uint256"
        }
      ],
      "name": "Approval",
      "type": "event"
    },
    {
      "anonymous": false,
      "inputs": [
        {
          "indexed": true,
          "internalType": "address",
          "name": "owner",
          "type": "address"
        },
        {
          "indexed": true,
          "internalType": "address",
          "name": "operator",
          "type": "address"
        },
        {
          "indexed": false,
          "internalType": "bool",
          "name": "approved",
          "type": "bool"
        }
      ],
      "name": "ApprovalForAll",
      "type": "event"
    },
    {
      "anonymous": false,
      "inputs": [
        {
          "indexed": false,
          "internalType": "uint256",
          "name": "_fromTokenId",
          "type": "uint256"
        },
        {
          "indexed": false,
          "internalType": "uint256",
          "name": "_toTokenId",
          "type": "uint256"
        }
      ],
      "name": "BatchMetadataUpdate",
      "type": "event"
    },
    {
      "anonymous": false,
      "inputs": [
        {
          "indexed": false,
          "internalType": "uint256",
          "name": "_tokenId",
          "type": "uint256"
        }
      ],
      "name": "MetadataUpdate",
      "type": "event"
    },
    {
      "anonymous": false,
      "inputs": [
        {
          "indexed": true,
          "internalType": "address",
          "name": "previousOwner",
          "type": "address"
        },
        {
          "indexed": true,
          "internalType": "address",
          "name": "newOwner",
          "type": "address"
        }
      ],
      "name": "OwnershipTransferred",
      "type": "event"
    },
    {
      "anonymous": false,
      "inputs": [
        {
          "indexed": true,
          "internalType": "address",
          "name": "from",
          "type": "address"
        },
        {
          "indexed": true,
          "internalType": "address",
          "name": "to",
          "type": "address"
        },
        {
          "indexed": true,
          "internalType": "uint256",
          "name": "tokenId",
          "type": "uint256"
        }
      ],
      "name": "Transfer",
      "type": "event"
    },
    {
      "inputs": [
        {
          "internalType": "address",
          "name": "to",
          "type": "address"
        },
        {
          "internalType": "uint256",
          "name": "tokenId",
          "type": "uint256"
        }
      ],
      "name": "approve",
      "outputs": [],
      "stateMutability": "nonpayable",
      "type": "function"
    },
    {
      "inputs": [
        {
          "internalType": "address",
          "name": "owner",
          "type": "address"
        }
      ],
      "name": "balanceOf",
      "outputs": [
        {
          "internalType": "uint256",
          "name": "",
          "type": "uint256"
        }
      ],
      "stateMutability": "view",
      "type": "function"
    },
    {
      "inputs": [
        {
          "internalType": "uint256",
          "name": "tokenId",
          "type": "uint256"
        }
      ],
      "name": "getApproved",
      "outputs": [
        {
          "internalType": "address",
          "name": "",
          "type": "address"
        }
      ],
      "stateMutability": "view",
      "type": "function"
    },
    {
      "inputs": [
        {
          "internalType": "address",
          "name": "owner",
          "type": "address"
        },
        {
          "internalType": "address",
          "name": "operator",
          "type": "address"
        }
      ],
      "name": "isApprovedForAll",
      "outputs": [
        {
          "internalType": "bool",
          "name": "",
          "type": "bool"
        }
      ],
      "stateMutability": "view",
      "type": "function"
    },
    {
      "inputs": [
        {
          "internalType": "address",
          "name": "to",
          "type": "address"
        },
        {
          "internalType": "string",
          "name": "tokenURI",
          "type": "string"
        }
      ],
      "name": "mintMemory",
      "outputs": [
        {
          "internalType": "uint256",
          "name": "",
          "type": "uint256"
        }
      ],
      "stateMutability": "nonpayable",
      "type": "function"
    },
    {
      "inputs": [],
      "name": "name",
      "outputs": [
        {
          "internalType": "string",
          "name": "",
          "type": "string"
        }
      ],
      "stateMutability": "view",
      "type": "function"
    },
    {
      "inputs": [],
      "name": "owner",
      "outputs": [
        {
          "internalType": "address",
          "name": "",
          "type": "address"
        }
      ],
      "stateMutability": "view",
      "type": "function"
    },
    {
      "inputs": [
        {
          "internalType": "uint256",
          "name": "tokenId",
          "type": "uint256"
        }
      ],
      "name": "ownerOf",
      "outputs": [
        {
          "internalType": "address",
          "name": "",
          "type": "address"
        }
      ],
      "stateMutability": "view",
      "type": "function"
    },
    {
      "inputs": [],
      "name": "renounceOwnership",
      "outputs": [],
      "stateMutability": "nonpayable",
      "type": "function"
    },
    {
      "inputs": [
        {
          "internalType": "address",
          "name": "from",
          "type": "address"
        },
        {
          "internalType": "address",
          "name": "to",
          "type": "address"
        },
        {
          "internalType": "uint256",
          "name": "tokenId",
          "type": "uint256"
        }
      ],
      "name": "safeTransferFrom",
      "outputs": [],
      "stateMutability": "nonpayable",
      "type": "function"
    },
    {
      "inputs": [
        {
          "internalType": "address",
          "name": "from",
          "type": "address"
        },
        {
          "internalType": "address",
          "name": "to",
          "type": "address"
        },
        {
          "internalType": "uint256",
          "name": "tokenId",
          "type": "uint256"
        },
        {
          "internalType": "bytes",
          "name": "data",
          "type": "bytes"
        }
      ],
      "name": "safeTransferFrom",
      "outputs": [],
      "stateMutability": "nonpayable",
      "type": "function"
    },
    {
      "inputs": [
        {
          "internalType": "address",
          "name": "operator",
          "type": "address"
        },
        {
          "internalType": "bool",
          "name": "approved",
          "type": "bool"
        }
      ],
      "name": "setApprovalForAll",
      "outputs": [],
      "stateMutability": "nonpayable",
      "type": "function"
    },
    {
      "inputs": [
        {
          "internalType": "bytes4",
          "name": "interfaceId",
          "type": "bytes4"
        }
      ],
      "name": "supportsInterface",
      "outputs": [
        {
          "internalType": "bool",
          "name": "",
          "type": "bool"
        }
      ],
      "stateMutability": "view",
      "type": "function"
    },
    {
      "inputs": [],
      "name": "symbol",
      "outputs": [
        {
          "internalType": "string",
          "name": "",
          "type": "string"
        }
      ],
      "stateMutability": "view",
      "type": "function"
    },
    {
      "inputs": [
        {
          "internalType": "uint256",
          "name": "tokenId",
          "type": "uint256"
        }
      ],
      "name": "tokenURI",
      "outputs": [
        {
          "internalType": "string",
          "name": "",
          "type": "string"
        }
      ],
      "stateMutability": "view",
      "type": "function"
    },
    {
      "inputs": [
        {
          "internalType": "address",
          "name": "from",
          "type": "address"
        },
        {
          "internalType": "address",
          "name": "to",
          "type": "address"
        },
        {
          "internalType": "uint256",
          "name": "tokenId",
          "type": "uint256"
        }
      ],
      "name": "transferFrom",
      "outputs": [],
      "stateMutability": "nonpayable",
      "type": "function"
    },
    {
      "inputs": [
        {
          "internalType": "address",
          "name": "newOwner",
          "type": "address"
        }
      ],
      "name": "transferOwnership",
      "outputs": [],
      "stateMutability": "nonpayable",
      "type": "function"
    }
  ],
  "bytecode": "0x608060405234801561000f575f5ffd5b50336040518060400160405280600e81526020017f4d616d61736574204d656d6f72790000000000000000000000000000000000008152506040518060400160405280600481526020017f4d414d4100000000000000000000000000000000000000000000000000000000815250815f908161008b9190610423565b50806001908161009b9190610423565b5050505f73ffffffffffffffffffffffffffffffffffffffff168173ffffffffffffffffffffffffffffffffffffffff160361010e575f6040517f1e4fbdf70000000000000000000000000000000000000000000000000000000081526004016101059190610531565b60405180910390fd5b61011d8161012360201b60201c565b5061054a565b5f60075f9054906101000a900473ffffffffffffffffffffffffffffffffffffffff1690508160075f6101000a81548173ffffffffffffffffffffffffffffffffffffffff021916908373ffffffffffffffffffffffffffffffffffffffff1602179055508173ffffffffffffffffffffffffffffffffffffffff168173ffffffffffffffffffffffffffffffffffffffff167f8be0079c531659141344cd1fd0a4f28419497f9722a3daafe3b4186f6b6457e060405160405180910390a35050565b5f81519050919050565b7f4e487b71000000000000000000000000000000000000000000000000000000005f52604160045260245ffd5b7f4e487b71000000000000000000000000000000000000000000000000000000005f52602260045260245ffd5b5f600282049050600182168061026157607f821691505b6020821081036102745761027361021d565b5b50919050565b5f819050815f5260205f209050919050565b5f6020601f8301049050919050565b5f82821b905092915050565b5f600883026102d67fffffffffffffffffffffffffffffffffffffffffffffffffffffffffffffffff8261029b565b6102e0868361029b565b95508019841693508086168417925050509392505050565b5f819050919050565b5f819050919050565b5f61032461031f61031a846102f8565b610301565b6102f8565b9050919050565b5f819050919050565b61033d8361030a565b6103516103498261032b565b8484546102a7565b825550505050565b5f5f905090565b610368610359565b610373818484610334565b505050565b5b818110156103965761038b5f82610360565b600181019050610379565b5050565b601f8211156103db576103ac8161027a565b6103b58461028c565b810160208510156103c4578190505b6103d86103d08561028c565b830182610378565b50505b505050565b5f82821c905092915050565b5f6103fb5f19846008026103e0565b1980831691505092915050565b5f61041383836103ec565b9150826002028217905092915050565b61042c826101e6565b67ffffffffffffffff811115610445576104446101f0565b5b61044f825461024a565b61045a82828561039a565b5f60209050601f83116001811461048b575f8415610479578287015190505b6104838582610408565b8655506104ea565b601f1984166104998661027a565b5f5b828110156104c05784890151825560018201915060208501945060208101905061049b565b868310156104dd57848901516104d9601f8916826103ec565b8355505b6001600288020188555050505b505050505050565b5f73ffffffffffffffffffffffffffffffffffffffff82169050919050565b5f61051b826104f2565b9050919050565b61052b81610511565b82525050565b5f6020820190506105445f830184610522565b92915050565b61263b806105575f395ff3fe608060405234801561000f575f5ffd5b5060043610610109575f3560e01c806370a08231116100a0578063a22cb4651161006f578063a22cb465146102b5578063b88d4fde146102d1578063c87b56dd146102ed578063e985e9c51461031d578063f2fde38b1461034d57610109565b806370a082311461023f578063715018a61461026f5780638da5cb5b1461027957806395d89b411461029757610109565b806323b872dd116100dc57806323b872dd146101a75780633a9f12b6146101c357806342842e0e146101f35780636352211e1461020f57610109565b806301ffc9a71461010d57806306fdde031461013d578063081812fc1461015b578063095ea7b31461018b575b5f5ffd5b61012760048036038101906101229190611b0b565b610369565b6040516101349190611b50565b60405180910390f35b61014561037a565b6040516101529190611bd9565b60405180910390f35b61017560048036038101906101709190611c2c565b610409565b6040516101829190611c96565b60405180910390f35b6101a560048036038101906101a09190611cd9565b610424565b005b6101c160048036038101906101bc9190611d17565b61043a565b005b6101dd60048036038101906101d89190611e93565b610539565b6040516101ea9190611efc565b60405180910390f35b61020d60048036038101906102089190611d17565b61057d565b005b61022960048036038101906102249190611c2c565b61059c565b6040516102369190611c96565b60405180910390f35b61025960048036038101906102549190611f15565b6105ad565b6040516102669190611efc565b60405180910390f35b610277610663565b005b610281610676565b60405161028e9190611c96565b60405180910390f35b61029f61069e565b6040516102ac9190611bd9565b60405180910390f35b6102cf60048036038101906102ca9190611f6a565b61072e565b005b6102eb60048036038101906102e69190612046565b610744565b005b61030760048036038101906103029190611c2c565b610769565b6040516103149190611bd9565b60405180910390f35b610337600480360381019061033291906120c6565b61077b565b6040516103449190611b50565b60405180910390f35b61036760048036038101906103629190611f15565b610809565b005b5f6103738261088d565b9050919050565b60605f805461038890612131565b80601f01602080910402602001604051908101604052809291908181526020018280546103b490612131565b80156103ff5780601f106103d6576101008083540402835291602001916103ff565b820191905f5260205f20905b8154815290600101906020018083116103e257829003601f168201915b5050505050905090565b5f610413826108ed565b5061041d82610973565b9050919050565b61043682826104316109ac565b6109b3565b5050565b5f73ffffffffffffffffffffffffffffffffffffffff168273ffffffffffffffffffffffffffffffffffffffff16036104aa575f6040517f64a0ae920000000000000000000000000000000000000000000000000000000081526004016104a19190611c96565b60405180910390fd5b5f6104bd83836104b86109ac565b6109c5565b90508373ffffffffffffffffffffffffffffffffffffffff168173ffffffffffffffffffffffffffffffffffffffff1614610533578382826040517f64283d7b00000000000000000000000000000000000000000000000000000000815260040161052a93929190612161565b60405180910390fd5b50505050565b5f610542610bd0565b5f600854905060085f81548092919061055a906121c3565b91905055506105698482610c57565b6105738184610c74565b8091505092915050565b61059783838360405180602001604052805f815250610744565b505050565b5f6105a6826108ed565b9050919050565b5f5f73ffffffffffffffffffffffffffffffffffffffff168273ffffffffffffffffffffffffffffffffffffffff160361061e575f6040517f89c62b640000000000000000000000000000000000000000000000000000000081526004016106159190611c96565b60405180910390fd5b60035f8373ffffffffffffffffffffffffffffffffffffffff1673ffffffffffffffffffffffffffffffffffffffff1681526020019081526020015f20549050919050565b61066b610bd0565b6106745f610cce565b565b5f60075f9054906101000a900473ffffffffffffffffffffffffffffffffffffffff16905090565b6060600180546106ad90612131565b80601f01602080910402602001604051908101604052809291908181526020018280546106d990612131565b80156107245780601f106106fb57610100808354040283529160200191610724565b820191905f5260205f20905b81548152906001019060200180831161070757829003601f168201915b5050505050905090565b6107406107396109ac565b8383610d91565b5050565b61074f84848461043a565b61076361075a6109ac565b85858585610f6a565b50505050565b606061077482611116565b9050919050565b5f60055f8473ffffffffffffffffffffffffffffffffffffffff1673ffffffffffffffffffffffffffffffffffffffff1681526020019081526020015f205f8373ffffffffffffffffffffffffffffffffffffffff1673ffffffffffffffffffffffffffffffffffffffff1681526020019081526020015f205f9054906101000a900460ff16905092915050565b610811610bd0565b5f73ffffffffffffffffffffffffffffffffffffffff168173ffffffffffffffffffffffffffffffffffffffff1603610881575f6040517f1e4fbdf70000000000000000000000000000000000000000000000000000000081526004016108789190611c96565b60405180910390fd5b61088a81610cce565b50565b5f634906490660e01b7bffffffffffffffffffffffffffffffffffffffffffffffffffffffff1916827bffffffffffffffffffffffffffffffffffffffffffffffffffffffff191614806108e657506108e582611192565b5b9050919050565b5f5f6108f883611273565b90505f73ffffffffffffffffffffffffffffffffffffffff168173ffffffffffffffffffffffffffffffffffffffff160361096a57826040517f7e2732890000000000000000000000000000000000000000000000000000000081526004016109619190611efc565b60405180910390fd5b80915050919050565b5f60045f8381526020019081526020015f205f9054906101000a900473ffffffffffffffffffffffffffffffffffffffff169050919050565b5f33905090565b6109c083838360016112ac565b505050565b5f5f6109d084611273565b90505f73ffffffffffffffffffffffffffffffffffffffff168373ffffffffffffffffffffffffffffffffffffffff1614610a1157610a1081848661146b565b5b5f73ffffffffffffffffffffffffffffffffffffffff168173ffffffffffffffffffffffffffffffffffffffff1614610a9c57610a505f855f5f6112ac565b600160035f8373ffffffffffffffffffffffffffffffffffffffff1673ffffffffffffffffffffffffffffffffffffffff1681526020019081526020015f205f82825403925050819055505b5f73ffffffffffffffffffffffffffffffffffffffff168573ffffffffffffffffffffffffffffffffffffffff1614610b1b57600160035f8773ffffffffffffffffffffffffffffffffffffffff1673ffffffffffffffffffffffffffffffffffffffff1681526020019081526020015f205f82825401925050819055505b8460025f8681526020019081526020015f205f6101000a81548173ffffffffffffffffffffffffffffffffffffffff021916908373ffffffffffffffffffffffffffffffffffffffff160217905550838573ffffffffffffffffffffffffffffffffffffffff168273ffffffffffffffffffffffffffffffffffffffff167fddf252ad1be2c89b69c2b068fc378daa952ba7f163c4a11628f55a4df523b3ef60405160405180910390a4809150509392505050565b610bd86109ac565b73ffffffffffffffffffffffffffffffffffffffff16610bf6610676565b73ffffffffffffffffffffffffffffffffffffffff1614610c5557610c196109ac565b6040517f118cdaa7000000000000000000000000000000000000000000000000000000008152600401610c4c9190611c96565b60405180910390fd5b565b610c70828260405180602001604052805f81525061152e565b5050565b8060065f8481526020019081526020015f209081610c9291906123aa565b507ff8e1a15aba9398e019f0b49df1a4fde98ee17ae345cb5f6b5e2c27f5033e8ce782604051610cc29190611efc565b60405180910390a15050565b5f60075f9054906101000a900473ffffffffffffffffffffffffffffffffffffffff1690508160075f6101000a81548173ffffffffffffffffffffffffffffffffffffffff021916908373ffffffffffffffffffffffffffffffffffffffff1602179055508173ffffffffffffffffffffffffffffffffffffffff168173ffffffffffffffffffffffffffffffffffffffff167f8be0079c531659141344cd1fd0a4f28419497f9722a3daafe3b4186f6b6457e060405160405180910390a35050565b5f73ffffffffffffffffffffffffffffffffffffffff168373ffffffffffffffffffffffffffffffffffffffff1603610e01575f6040517fa9fbf51f000000000000000000000000000000000000000000000000000000008152600401610df89190611c96565b60405180910390fd5b5f73ffffffffffffffffffffffffffffffffffffffff168273ffffffffffffffffffffffffffffffffffffffff1603610e7157816040517f5b08ba18000000000000000000000000000000000000000000000000000000008152600401610e689190611c96565b60405180910390fd5b8060055f8573ffffffffffffffffffffffffffffffffffffffff1673ffffffffffffffffffffffffffffffffffffffff1681526020019081526020015f205f8473ffffffffffffffffffffffffffffffffffffffff1673ffffffffffffffffffffffffffffffffffffffff1681526020019081526020015f205f6101000a81548160ff0219169083151502179055508173ffffffffffffffffffffffffffffffffffffffff168373ffffffffffffffffffffffffffffffffffffffff167f17307eab39ab6107e8899845ad3d59bd9653f200f220920489ca2b5937696c3183604051610f5d9190611b50565b60405180910390a3505050565b5f8373ffffffffffffffffffffffffffffffffffffffff163b111561110f578273ffffffffffffffffffffffffffffffffffffffff1663150b7a02868685856040518563ffffffff1660e01b8152600401610fc894939291906124cb565b6020604051808303815f875af192505050801561100357506040513d601f19601f820116820180604052508101906110009190612529565b60015b611084573d805f8114611031576040519150601f19603f3d011682016040523d82523d5f602084013e611036565b606091505b505f81510361107c57836040517f64a0ae920000000000000000000000000000000000000000000000000000000081526004016110739190611c96565b60405180910390fd5b805160208201fd5b63150b7a0260e01b7bffffffffffffffffffffffffffffffffffffffffffffffffffffffff1916817bffffffffffffffffffffffffffffffffffffffffffffffffffffffff19161461110d57836040517f64a0ae920000000000000000000000000000000000000000000000000000000081526004016111049190611c96565b60405180910390fd5b505b5050505050565b6060611121826108ed565b505f61112b611551565b90505f61113784611567565b90505f82510361114b57809250505061118d565b5f8151111561117f57818160405160200161116792919061258e565b6040516020818303038152906040529250505061118d565b61118884611608565b925050505b919050565b5f7f80ac58cd000000000000000000000000000000000000000000000000000000007bffffffffffffffffffffffffffffffffffffffffffffffffffffffff1916827bffffffffffffffffffffffffffffffffffffffffffffffffffffffff1916148061125c57507f5b5e139f000000000000000000000000000000000000000000000000000000007bffffffffffffffffffffffffffffffffffffffffffffffffffffffff1916827bffffffffffffffffffffffffffffffffffffffffffffffffffffffff1916145b8061126c575061126b8261166e565b5b9050919050565b5f60025f8381526020019081526020015f205f9054906101000a900473ffffffffffffffffffffffffffffffffffffffff169050919050565b80806112e457505f73ffffffffffffffffffffffffffffffffffffffff168273ffffffffffffffffffffffffffffffffffffffff1614155b15611416575f6112f3846108ed565b90505f73ffffffffffffffffffffffffffffffffffffffff168373ffffffffffffffffffffffffffffffffffffffff161415801561135d57508273ffffffffffffffffffffffffffffffffffffffff168173ffffffffffffffffffffffffffffffffffffffff1614155b8015611370575061136e818461077b565b155b156113b257826040517fa9fbf51f0000000000000000000000000000000000000000000000000000000081526004016113a99190611c96565b60405180910390fd5b811561141457838573ffffffffffffffffffffffffffffffffffffffff168273ffffffffffffffffffffffffffffffffffffffff167f8c5be1e5ebec7d5bd14f71427d1e84f3dd0314c0f7b2291e5b200ac8c7c3b92560405160405180910390a45b505b8360045f8581526020019081526020015f205f6101000a81548173ffffffffffffffffffffffffffffffffffffffff021916908373ffffffffffffffffffffffffffffffffffffffff16021790555050505050565b6114768383836116d7565b611529575f73ffffffffffffffffffffffffffffffffffffffff168373ffffffffffffffffffffffffffffffffffffffff16036114ea57806040517f7e2732890000000000000000000000000000000000000000000000000000000081526004016114e19190611efc565b60405180910390fd5b81816040517f177e802f0000000000000000000000000000000000000000000000000000000081526004016115209291906125b1565b60405180910390fd5b505050565b6115388383611797565b61154c6115436109ac565b5f858585610f6a565b505050565b606060405180602001604052805f815250905090565b606060065f8381526020019081526020015f20805461158590612131565b80601f01602080910402602001604051908101604052809291908181526020018280546115b190612131565b80156115fc5780601f106115d3576101008083540402835291602001916115fc565b820191905f5260205f20905b8154815290600101906020018083116115df57829003601f168201915b50505050509050919050565b6060611613826108ed565b505f61161d611551565b90505f81511161163b5760405180602001604052805f815250611666565b806116458461188a565b60405160200161165692919061258e565b6040516020818303038152906040525b915050919050565b5f7f01ffc9a7000000000000000000000000000000000000000000000000000000007bffffffffffffffffffffffffffffffffffffffffffffffffffffffff1916827bffffffffffffffffffffffffffffffffffffffffffffffffffffffff1916149050919050565b5f5f73ffffffffffffffffffffffffffffffffffffffff168373ffffffffffffffffffffffffffffffffffffffff161415801561178e57508273ffffffffffffffffffffffffffffffffffffffff168473ffffffffffffffffffffffffffffffffffffffff16148061174f575061174e848461077b565b5b8061178d57508273ffffffffffffffffffffffffffffffffffffffff1661177583610973565b73ffffffffffffffffffffffffffffffffffffffff16145b5b90509392505050565b5f73ffffffffffffffffffffffffffffffffffffffff168273ffffffffffffffffffffffffffffffffffffffff1603611807575f6040517f64a0ae920000000000000000000000000000000000000000000000000000000081526004016117fe9190611c96565b60405180910390fd5b5f61181383835f6109c5565b90505f73ffffffffffffffffffffffffffffffffffffffff168173ffffffffffffffffffffffffffffffffffffffff1614611885575f6040517f73c6ac6e00000000000000000000000000000000000000000000000000000000815260040161187c9190611c96565b60405180910390fd5b505050565b60605f600161189884611954565b0190505f8167ffffffffffffffff8111156118b6576118b5611d6f565b5b6040519080825280601f01601f1916602001820160405280156118e85781602001600182028036833780820191505090505b5090505f82602083010190505b600115611949578080600190039150507f3031323334353637383961626364656600000000000000000000000000000000600a86061a8153600a858161193e5761193d6125d8565b5b0494505f85036118f5575b819350505050919050565b5f5f5f90507a184f03e93ff9f4daa797ed6e38ed64bf6a1f01000000000000000083106119b0577a184f03e93ff9f4daa797ed6e38ed64bf6a1f01000000000000000083816119a6576119a56125d8565b5b0492506040810190505b6d04ee2d6d415b85acef810000000083106119ed576d04ee2d6d415b85acef810000000083816119e3576119e26125d8565b5b0492506020810190505b662386f26fc100008310611a1c57662386f26fc100008381611a1257611a116125d8565b5b0492506010810190505b6305f5e1008310611a45576305f5e1008381611a3b57611a3a6125d8565b5b0492506008810190505b6127108310611a6a576127108381611a6057611a5f6125d8565b5b0492506004810190505b60648310611a8d5760648381611a8357611a826125d8565b5b0492506002810190505b600a8310611a9c576001810190505b80915050919050565b5f604051905090565b5f5ffd5b5f5ffd5b5f7fffffffff0000000000000000000000000000000000000000000000000000000082169050919050565b611aea81611ab6565b8114611af4575f5ffd5b50565b5f81359050611b0581611ae1565b92915050565b5f60208284031215611b2057611b1f611aae565b5b5f611b2d84828501611af7565b91505092915050565b5f8115159050919050565b611b4a81611b36565b82525050565b5f602082019050611b635f830184611b41565b92915050565b5f81519050919050565b5f82825260208201905092915050565b8281835e5f83830152505050565b5f601f19601f8301169050919050565b5f611bab82611b69565b611bb58185611b73565b9350611bc5818560208601611b83565b611bce81611b91565b840191505092915050565b5f6020820190508181035f830152611bf18184611ba1565b905092915050565b5f819050919050565b611c0b81611bf9565b8114611c15575f5ffd5b50565b5f81359050611c2681611c02565b92915050565b5f60208284031215611c4157611c40611aae565b5b5f611c4e84828501611c18565b91505092915050565b5f73ffffffffffffffffffffffffffffffffffffffff82169050919050565b5f611c8082611c57565b9050919050565b611c9081611c76565b82525050565b5f602082019050611ca95f830184611c87565b92915050565b611cb881611c76565b8114611cc2575f5ffd5b50565b5f81359050611cd381611caf565b92915050565b5f5f60408385031215611cef57611cee611aae565b5b5f611cfc85828601611cc5565b9250506020611d0d85828601611c18565b9150509250929050565b5f5f5f60608486031215611d2e57611d2d611aae565b5b5f611d3b86828701611cc5565b9350506020611d4c86828701611cc5565b9250506040611d5d86828701611c18565b9150509250925092565b5f5ffd5b5f5ffd5b7f4e487b71000000000000000000000000000000000000000000000000000000005f52604160045260245ffd5b611da582611b91565b810181811067ffffffffffffffff82111715611dc457611dc3611d6f565b5b80604052505050565b5f611dd6611aa5565b9050611de28282611d9c565b919050565b5f67ffffffffffffffff821115611e0157611e00611d6f565b5b611e0a82611b91565b9050602081019050919050565b828183375f83830152505050565b5f611e37611e3284611de7565b611dcd565b905082815260208101848484011115611e5357611e52611d6b565b5b611e5e848285611e17565b509392505050565b5f82601f830112611e7a57611e79611d67565b5b8135611e8a848260208601611e25565b91505092915050565b5f5f60408385031215611ea957611ea8611aae565b5b5f611eb685828601611cc5565b925050602083013567ffffffffffffffff811115611ed757611ed6611ab2565b5b611ee385828601611e66565b9150509250929050565b611ef681611bf9565b82525050565b5f602082019050611f0f5f830184611eed565b92915050565b5f60208284031215611f2a57611f29611aae565b5b5f611f3784828501611cc5565b91505092915050565b611f4981611b36565b8114611f53575f5ffd5b50565b5f81359050611f6481611f40565b92915050565b5f5f60408385031215611f8057611f7f611aae565b5b5f611f8d85828601611cc5565b9250506020611f9e85828601611f56565b9150509250929050565b5f67ffffffffffffffff821115611fc257611fc1611d6f565b5b611fcb82611b91565b9050602081019050919050565b5f611fea611fe584611fa8565b611dcd565b90508281526020810184848401111561200657612005611d6b565b5b612011848285611e17565b509392505050565b5f82601f83011261202d5761202c611d67565b5b813561203d848260208601611fd8565b91505092915050565b5f5f5f5f6080858703121561205e5761205d611aae565b5b5f61206b87828801611cc5565b945050602061207c87828801611cc5565b935050604061208d87828801611c18565b925050606085013567ffffffffffffffff8111156120ae576120ad611ab2565b5b6120ba87828801612019565b91505092959194509250565b5f5f604083850312156120dc576120db611aae565b5b5f6120e985828601611cc5565b92505060206120fa85828601611cc5565b9150509250929050565b7f4e487b71000000000000000000000000000000000000000000000000000000005f52602260045260245ffd5b5f600282049050600182168061214857607f821691505b60208210810361215b5761215a612104565b5b50919050565b5f6060820190506121745f830186611c87565b6121816020830185611eed565b61218e6040830184611c87565b949350505050565b7f4e487b71000000000000000000000000000000000000000000000000000000005f52601160045260245ffd5b5f6121cd82611bf9565b91507fffffffffffffffffffffffffffffffffffffffffffffffffffffffffffffffff82036121ff576121fe612196565b5b600182019050919050565b5f819050815f5260205f209050919050565b5f6020601f8301049050919050565b5f82821b905092915050565b5f600883026122667fffffffffffffffffffffffffffffffffffffffffffffffffffffffffffffffff8261222b565b612270868361222b565b95508019841693508086168417925050509392505050565b5f819050919050565b5f6122ab6122a66122a184611bf9565b612288565b611bf9565b9050919050565b5f819050919050565b6122c483612291565b6122d86122d0826122b2565b848454612237565b825550505050565b5f5f905090565b6122ef6122e0565b6122fa8184846122bb565b505050565b5b8181101561231d576123125f826122e7565b600181019050612300565b5050565b601f821115612362576123338161220a565b61233c8461221c565b8101602085101561234b578190505b61235f6123578561221c565b8301826122ff565b50505b505050565b5f82821c905092915050565b5f6123825f1984600802612367565b1980831691505092915050565b5f61239a8383612373565b9150826002028217905092915050565b6123b382611b69565b67ffffffffffffffff8111156123cc576123cb611d6f565b5b6123d68254612131565b6123e1828285612321565b5f60209050601f831160018114612412575f8415612400578287015190505b61240a858261238f565b865550612471565b601f1984166124208661220a565b5f5b8281101561244757848901518255600182019150602085019450602081019050612422565b868310156124645784890151612460601f891682612373565b8355505b6001600288020188555050505b505050505050565b5f81519050919050565b5f82825260208201905092915050565b5f61249d82612479565b6124a78185612483565b93506124b7818560208601611b83565b6124c081611b91565b840191505092915050565b5f6080820190506124de5f830187611c87565b6124eb6020830186611c87565b6124f86040830185611eed565b818103606083015261250a8184612493565b905095945050505050565b5f8151905061252381611ae1565b92915050565b5f6020828403121561253e5761253d611aae565b5b5f61254b84828501612515565b91505092915050565b5f81905092915050565b5f61256882611b69565b6125728185612554565b9350612582818560208601611b83565b80840191505092915050565b5f612599828561255e565b91506125a5828461255e565b91508190509392505050565b5f6040820190506125c45f830185611c87565b6125d16020830184611eed565b9392505050565b7f4e487b71000000000000000000000000000000000000000000000000000000005f52601260045260245ffdfea2646970667358221220b06ce0a9faec0322c6c521512bda1d89b1f258d7a8dc984888e770e72239f74c64736f6c634300081c0033",
  "linkReferences": {},
  "deployedLinkReferences": {}
}